:020000040800F2
:10000000A8120020E5080008390300083B03000897
:100010003F030008430300084703000800000000F6
:100020000000000000000000000000004B0300087A
:100030004D030008000000004F03000851030008B2
:10004000FF080008FF080008FF080008FF08000874
:10005000FF080008FF080008FF080008FF08000864
:10006000FF080008FF080008FF080008FF08000854
:10007000FF080008FF080008FF080008FF08000844
:10008000FF080008FF080008FF080008FF08000834
:10009000FF080008FF080008FF080008FF08000824
:1000A000FF080008FF080008FF080008FF08000814
:1000B000FF080008D7060008FF080008FF0800082E
:1000C000FF080008FF080008FF080008FF080008F4
:1000D000FF0800089D080008FF080008FF08000846
:1000E000FF080008FF080008FF080008FF080008D4
:1000F000FF080008FF080008FF080008FF080008C4
:10010000FF080008FF080008FF080008FF080008B3
:10011000FF080008FF080008FF080008FF080008A3
:10012000FF080008FF080008FF080008FF08000893
:1001300000F002F800F098F80AA090E8000C824461
:100140008344AAF10107DA4501D100F08DF8AFF23E
:10015000090EBAE80F0013F0010F18BFFB1A43F0A5
:1001600001031847A8BF0000C8BF0000103A24BF11
:1001700078C878C1FAD8520724BF30C830C144BF0C
:1001800004680C607047000000230024002500264E
:10019000103A28BF78C1FBD8520728BF30C148BFEA
:1001A0000B6070476E2907F0E382702907F03784EF
:1001B00066290BF0248565290BF0218567290BF052
:1001C0001E8561290BF01D8503681B0A28BF41F0BD
:1001D0008001692907F09082642907F08D827529D2
:1001E00007F08A826F2907F0C483782907F0038417
:1001F000E92907F05F83E42907F05C83F52907F01C
:100200005983EF2907F0C183F82907F002840368B6
:10021000DB0928BF41F08001632908F02781732999
:1002200008F02C81E32908F03781F32908F03C819C
:10023000002070471FB59DE8030007F0B9F908F0EA
:100240005FFA0400002000210AF026FA401C6060DA
:10025000002000210AF00AFAE06008F02DF91FBD25
:1002600010B508F092F910BD08F01DFA1146FFF71D
:10027000E1FF00F009F808F0A3FC03B4FFF7F0FF7A
:1002800003BC08F0DBFC0000002600F03BFA4FF452
:10029000A06000F047FB4FF4E13000F09DFA00F061
:1002A00049F900F06DF941F61F4141F2873000F045
:1002B000E5F934E01A48008800F40040E0B118483D
:1002C0000088C0F30D0500240DE01648015D1648B6
:1002D00001F052F800BF4021134801F0BBF801289B
:1002E000F9D1601C84B2AC42EFDB10A007F0ECF84F
:1002F00000200B49088012E0701C86B21E2096FB7D
:10030000F0F100FB116038B90A48006808B9012013
:1003100000E00020074908600A2000F030FAC9E731
:100320001A0000205C000020003801400D0A0D0A70
:100330000000000094812142704700BFFEE700BF2B
:10034000FEE700BFFEE700BFFEE77047704770475B
:10035000704700000CB50020019000906C480068C8
:1003600040F480306A49086000BF6948006800F4C2
:10037000003000900198401C0190009818B9019835
:10038000B0F5A06FF1D16248006800F4003010B100
:100390000120009001E0002000900098012843D146
:1003A0005C48006840F010005A4908600846006840
:1003B00020F0030008600846006840F00200086072
:1003C00053484068524948600846406848600846BB
:1003D000406840F4806048600846406820F47C1023
:1003E00048600846406840F4E810486008460068E5
:1003F00040F08070086000BF4548006800F0007061
:100400000028F9D04248406820F003004049486085
:100410000846406840F00200486000BF3C48406821
:1004200000F00C000828F9D10CBD10B5FFF792FFC1
:1004300010BD10B53648006840F00100344908602E
:100440000846406834490840314948600846006819
:10045000324908402E4908600846006820F4802090
:1004600008600846406820F4FE0048604FF41F0012
:100470008860FFF7DAFF4FF000602949086010BD7F
:1004800010B5002100200022214B5B6803F00C0115
:1004900021B1042906D0082928D107E0214B224C9C
:1004A000236027E01F4B204C236023E0184B5B6840
:1004B00003F47010164B5B6803F48032022303EBE5
:1004C000904022B9194B4343174C23600DE0104B69
:1004D0005B6803F4003323B1144B4343124C236095
:1004E00003E0104B4343104C236003E00D4B0E4CD4
:1004F000236000BF00BF064B5B68C3F303130C4CC3
:10050000E15C094B1B68CB40074C236010BD000029
:1005100000100240002002400000FFF8FFFFF6FE3E
:1005200008ED00E000127A000000002000093D0004
:100530000400002008B50121482000F07DFD2020A6
:10054000ADF8000010208DF8030003208DF80200A4
:100550006946094800F0B4FA2021074800F05DFB25
:100560002020ADF800006946044800F0A9FA2021D7
:10057000024800F052FB08BD000C01400018014089
:1005800008B50121442000F057FD1C20ADF8000003
:1005900048208DF803006946354800F091FA0120A3
:1005A000ADF8000028208DF803006946314800F0BE
:1005B00087FA08BD10B5044614B101202E49087011
:1005C0002D480078002837D01021294800F00BFB77
:1005D00078B10821264800F006FB50B104212448D8
:1005E00000F001FB28B10121224800F0FCFA0128AB
:1005F00022D10A2000F0C3F800201F490870102102
:100600001B4800F0F0FA08B9012010BD0821184875
:1006100000F0E9FA08B90220F7E70421144800F0D5
:10062000E2FA08B90320F0E70121124800F0DBFAF2
:1006300001281BD10420E8E710210D4800F0D3FA6F
:10064000012813D108210A4800F0CDFA01280DD164
:100650000421074800F0C7FA012807D10121054805
:1006600000F0C1FA10B90120034908700020CCE75E
:100670000018014000080140140000207FB5054625
:100680000C460121022000F0E4FCADF80850ADF862
:1006900004400020ADF80A00ADF8060001A9174893
:1006A00001F006F801221146144801F078FB1D20E4
:1006B0008DF8000000208DF8010003208DF8020065
:1006C00001208DF80300684600F031F901210B4844
:1006D00001F04AFB7FBD10B50121084801F00DFE75
:1006E00058B10121054801F019FE0548006808B914
:1006F000012000E000200249086010BD0004004015
:100700009401234210B56FF0040000F05AF92E480E
:1007100000682E49B0FBF1F02D49087008460078BA
:1007200000EB4001C1EBC0104FF6FF7101EAC000C1
:100730002849088010BD0146254A12784A434FF0E7
:10074000E0235A6100229A611A46126942F00102BE
:100750001A6100BF4FF0E022106900F001021AB1E7
:1007600000F48032002AF5D04FF0E022126922F026
:1007700001024FF0E0231A6100229A61704701469E
:10078000144A12884A434FF0E0235A6100229A61CA
:100790001A46126942F001021A6100BF4FF0E022CE
:1007A000106900F001021AB100F48032002AF5D07D
:1007B0004FF0E022126922F001024FF0E0231A61AB
:1007C00000229A61704700000000002000127A00A9
:1007D000160000201800002010B586B00446012144
:1007E00044F2040000F028FC4FF40070ADF814004F
:1007F00003208DF8160018208DF8170005A937483A
:1008000000F05EF94FF48060ADF8140004208DF81C
:10081000170005A9314800F053F925208DF8000094
:1008200003208DF801008DF8020001208DF80300EF
:10083000684600F07CF801940020ADF80800ADF89F
:100840000A00ADF80C00ADF810000C20ADF80E0059
:1008500001A9234800F097FC012240F225512048CD
:1008600000F029FD01211E4800F019FD06B010BD61
:1008700070B505460E46002400BF0BE029781848E5
:1008800000F07AFD00BF4021154800F0E3FD00288C
:10089000F9D0641CB442F1DB204670BD08B540F2CB
:1008A00025510F4800F0ECFD40B10D4800F068FD07
:1008B000C0B200900121684606F02CFD40F22441B0
:1008C000074800F0DDFD40B106F00DFD28B900221B
:1008D00040F22441024800F0EEFC08BD000801404F
:1008E000003801400948804709480047FEE7FEE715
:1008F000FEE7FEE7FEE7FEE7FEE7FEE7FEE7FEE7D0
:1009000004480549054A064B7047000033040008B7
:1009100031010008A80C0020A8120020A80E002019
:10092000A80E002031490143314A1160704770B56B
:10093000002100230F22C47804B32D4C246804F452
:10094000E064C4F5E064210AC1F10403CA404478BC
:1009500004FA03F18478144021430901254C0678F8
:10096000A155047804F01F050124AC4005786D11F1
:10097000AD0005F1E025C5F8004109E0047804F078
:100980001F050124AC401C4D0678761145F8264021
:1009900070BD1A4A0A400243154B1B1F1A6070476C
:1009A00039B1134A121D12680243114B1B1D1A6004
:1009B00006E00F4A121D126882430D4B1B1D1A6080
:1009C0007047042808D14FF0E021096941F0040183
:1009D0004FF0E022116107E04FF0E021096921F0BA
:1009E00004014FF0E0221161704700000000FA0599
:1009F0000CED00E000E400E080E100E080FFFF1F7C
:100A000010B50446CC48844208D10121042000F0EE
:100A10002DFB0021042000F029FB46E0C74884425A
:100A200008D10121082000F021FB0021082000F05E
:100A30001DFB3AE0C248844208D10121102000F099
:100A400015FB0021102000F011FB2EE0BD48844270
:100A500008D10121202000F009FB0021202000F016
:100A600005FB22E0B848844208D10121402000F073
:100A7000FDFA0021402000F0F9FA16E0B348844264
:100A800008D10121802000F0F1FA0021802000F03F
:100A9000EDFA0AE0AE48844207D10121801500F04A
:100AA000E5FA0021A01500F0E1FA10BD10B5012112
:100AB000084600F0DBFA0021012000F0D7FA10BD53
:100AC0002DE9F041024600250026002000230024E5
:100AD000002791F803C00CF00F0591F803C00CF04B
:100AE000100CBCF1000F03D091F802C04CEA0505D0
:100AF00091F800C0BCF1000F31D0146800202BE049
:100B00004FF0010C0CFA00F3B1F800C00CEA030638
:100B10009E4220D183004FF00F0C0CFA03F7BC4328
:100B200005FA03FC4CEA040491F803C0BCF1280F59
:100B300006D14FF0010C0CFA00FCC2F814C00AE018
:100B400091F803C0BCF1480F05D14FF0010C0CFA2D
:100B500000FCC2F810C0401C0828D1D31460B1F8C2
:100B600000C0BCF1FF0F34DD546800202EE000F11E
:100B7000080C4FF0010808FA0CF3B1F800C00CEAB9
:100B800003069E4221D183004FF00F0C0CFA03F7AD
:100B9000BC4305FA03FC4CEA040491F803C0BCF121
:100BA000280F05D100F1080C08FA0CF8C2F81480DF
:100BB00091F803C0BCF1480F07D100F1080C4FF0C9
:100BC000010808FA0CF8C2F81080401C0828CED39F
:100BD0005460BDE8F0814FF6FF7101800221817001
:100BE0000421C17070470246002093680B400BB18E
:100BF000012000E0002070470146886880B27047FD
:100C000002460020D3680B400BB1012000E0002019
:100C100070470146C86880B2704701617047416102
:100C200070470AB1016100E041617047C1607047DF
:100C30004FF480320A4382618161826182698269F4
:100C4000704702460020434B18684FF680731840E7
:100C500040EA021008433F4B186070473E49C861A4
:100C60007047F0B50A46002300240021002500F05B
:100C70000046B6F1004F02D1364EF16901E0354E23
:100C80007168C0F3034583B200F44016B6F5401F07
:100C900008D121F070612F4E766826F070662D4FD6
:100CA0007E6012E000F48016B6F5801F06D10326A0
:100CB00006FA05F4A14341F0706106E0460D3601E5
:100CC00003FA06F6B14341F0706122B1460D3601D8
:100CD00003FA06F6314300F00046B6F1004F02D1A8
:100CE0001C4EF16101E01B4E7160F0BD30B5002279
:100CF0008B071C0F0F2303FA04F2164B08338C10DA
:100D000053F824309343134C08348D1044F82530A5
:100D100023468C1053F824308C07240F00FA04F477
:100D200023430C4C08348D1044F8253030BD0A495B
:100D3000DC3108607047000000080140000C0140F1
:100D4000001001400014014000180140001C014047
:100D5000002001400000014000002042DF48006800
:100D600040F00100DD49086008464068DC49084061
:100D7000DA49486008460068DA490840D7490860FF
:100D80000846006820F4802008600846406820F487
:100D9000FE0048604FF41F0088607047CF49096823
:100DA00021F48031CD4A11601146096821F4802177
:100DB0001160B0F5803F03D0B0F5802F0ED106E072
:100DC000C649096841F48031C44A116007E0C3494B
:100DD000096841F4A021C14A116000E000BF00BFD2
:100DE000704710B501460022002300204A11012A55
:100DF00002D1BA4C236806E0022A02D1B74C236A1A
:100E000001E0B64C636A01F01F02012494401C40CB
:100E10000CB1012000E0002010BD38B5002000908A
:100E20000024002500BF3120FFF7DBFF05460098B6
:100E3000401C00900098B0F5A06F01D0002DF2D0BA
:100E40003120FFF7CEFF08B1012400E00024204646
:100E500038BD01460020A14A106820F0F80040EAA1
:100E6000C10010607047A04908607047024600202A
:100E70009A4B586820F47C1042EA01031843974BC0
:100E80005860704798490866704701460020934AA9
:100E9000506820F003000843506070478F48406856
:100EA00000F00C007047014600208C4A506820F08A
:100EB000F00008435060704701460020874A5068A0
:100EC00020F4E06008435060704701460020834AE8
:100ED000506820F4605040EAC1005060704729B16A
:100EE0007E4A527A02437D4B5A7204E07B4A527A20
:100EF00082437A4B5A7270477B49D83108607047F9
:100F000001460020754A506820F440400843506074
:100F100070470021714A20321170704A82F8201007
:100F2000012802D004280AD104E001216B4A2032B2
:100F3000117005E00521694A2032117000E000BF00
:100F400000BF70476949086070476449096A0143F6
:100F5000624A11627047654944390860704730B58C
:100F600000210022002400235C4D6D6805F00C0177
:100F700021B1042905D0082923D105E05C4D056085
:100F800022E05B4D05601FE0544D6D6805F4701262
:100F9000524D6D6805F48034022505EB92421CB970
:100FA000544D554305600BE04C4D6D6805F400351C
:100FB0001DB1504D5543056002E04D4D5543056050
:100FC00002E04B4D056000BF00BF444D6D6805F069
:100FD000F0010909484D6B5C0568DD4045603F4DF7
:100FE0006D6805F4E061090A434D6B5C4568DD40BE
:100FF00085603A4D6D6805F46051C90A3E4D6B5CE1
:101000004568DD40C560354D6D6805F44041890B8C
:101010003A4D6B5CC568B5FBF3F5056130BD29B190
:101020002E4A526902432D4B5A6104E02B4A526901
:1010300082432A4B5A61704729B1284A9269024378
:10104000264B9A6104E0254A92698243234B9A61B8
:10105000704729B1214AD2690243204BDA6104E08A
:101060001E4AD26982431D4BDA61704729B11B4A7F
:10107000D2680243194BDA6004E0184AD26882430E
:10108000164BDA60704729B1144A12690243134BB8
:101090001A6104E0114A12698243104B1A617047C9
:1010A00012494039086070470F49C86470470B49BE
:1010B000C87170470948406A40F08070074948622B
:1010C000704701460020054A92680A400AB1012093
:1010D00000E000207047014988727047001002400C
:1010E0000000FFF8FFFFF6FE00004242800442428B
:1010F00000127A0000093D001C0000202C00002096
:1011000010B50446FB48844209D101218803FFF74A
:10111000ADFF00214FF48040FFF7A8FF32E0F64812
:10112000844209D101214804FFF7ADFF00214FF4AB
:101130000030FFF7A8FF25E0F048844209D10121E3
:101140008804FFF7A0FF00214FF48020FFF79BFFEA
:1011500018E0EB48844209D10121C804FFF793FF4E
:1011600000214FF40020FFF78EFF0BE0E54884429A
:1011700008D101210805FFF786FF00214FF48010F8
:10118000FFF781FF10BD2DE9F04786B005460E46FA
:101190000024A24600BFA1460027B08900B100BFCD
:1011A0002F462C8A4CF6FF700440F08804432C82B2
:1011B000AC894EF6F3100440B08831890843718938
:1011C00008430443AC81AC8A4FF6FF400440B08929
:1011D0000443AC8201A8FFF7C2FEC648874202D191
:1011E000DDF810A001E0DDF80CA0A88900F40040B3
:1011F00040B10AEBCA0000EB0A1031684900B0FBAD
:10120000F1F807E00AEBCA0000EB0A103168890028
:10121000B0FBF1F86420B8FBF0F004012009642170
:1012200001FB1089A88900F4004040B1322000EB96
:10123000C900B0FBF1F000F00700044308E03220E1
:1012400000EB09106421B0FBF1F000F00F00044343
:101250002C8106B0BDE8F0874FF4165101600021E3
:101260008180C18001810C214181002181817047F1
:1012700010B502460020108A4FF2FF0318400B8879
:101280004C8823438C882343CC8823431843108203
:1012900010BD0021018041808180C180704721B153
:1012A000828942F40052828104E082894DF6FF7304
:1012B0001A4082817047F0B50346002400260025BD
:1012C000002040F66A17B94200D100BF1846C1F3AA
:1012D000421401F01F06012707FA06F5012C01D17F
:1012E0000C3004E0022C01D1103000E014301AB1AF
:1012F00007682F43076002E00768AF430760F0BD4F
:101300001AB1838A0B43838202E0838A8B438382F0
:101310007047028A4FF6F0731A400282028A0A432B
:101320000282704782894FF2FF731A40828182895C
:101330000A438281704721B1828942F00202828190
:1013400004E082894FF6FD731A4082817047028A59
:101350004FF6DF731A400282028A0A430282704704
:1013600021B1028A42F48042028204E0028A4BF6F2
:10137000FF731A4002827047C1F3080282807047EF
:1013800001468888C0F308007047818941F0010157
:1013900081817047028BD2B20283028B42EA012222
:1013A00002837047028B02F47F420283028B0A435E
:1013B0000283704721B1828A42F02002828204E0D7
:1013C000828A4FF6DF731A408282704721B1828A87
:1013D00042F01002828204E0828A4FF6EF731A40D4
:1013E0008282704721B1828A42F00802828204E040
:1013F000828A4FF6F7731A408282704721B1828940
:1014000042F40042828103E08289C2F30E028281AB
:10141000704721B1828A42F40062828204E0828AAB
:101420004FF2FF731A4082827047828A4FF6FB7335
:101430001A408282828A0A438282704721B1828A5C
:1014400042F00202828204E0828A4FF6FD731A4063
:101450008282704702460020B1F5007F00D100BFB4
:1014600013880B400BB1012000E00020704701F40D
:101470000072B2F5007F00D100BFCA4302807047FE
:1014800070B50246002400230025002040F66A16AD
:10149000B14200D100BFC1F3421501F01F03012684
:1014A00006FA03F3012D02D19689334006E0022D9E
:1014B00002D1168A334001E0968A33400C1201268D
:1014C00006FA04F41688344013B10CB1012000E090
:1014D000002070BD10B50022002340F66A14A1421E
:1014E00000D100BF0A1201249440A3B2DC4304805F
:1014F00010BD00000038014000440040004800409A
:10150000004C00400050004010B50446FE488442A4
:1015100008D10121C014FFF7A9FD0021E014FFF755
:10152000A5FDC4E0B4F1804F08D101210846FFF7C2
:10153000AAFD00210120FFF7A6FDB8E0F348844290
:1015400008D101210220FFF79EFD00210220FFF7B4
:101550009AFDACE0EE48844208D101210420FFF757
:1015600092FD00210420FFF78EFDA0E0E9488442AF
:1015700008D101210820FFF786FD00210820FFF790
:1015800082FD94E0E448844208D101211020FFF755
:101590007AFD00211020FFF776FD88E0DF488442C5
:1015A00008D101212020FFF76EFD00212020FFF748
:1015B0006AFD7CE0DA48844208D101214014FFF73B
:1015C00055FD00216014FFF751FD70E0D5488442BD
:1015D00009D10121C804FFF749FD00214FF4002083
:1015E000FFF744FD63E0D048844209D1012108059A
:1015F000FFF73CFD00214FF48010FFF737FD56E068
:10160000CA48844209D101214805FFF72FFD002176
:101610004FF40010FFF72AFD49E0C548844208D185
:1016200001214020FFF72FFD00214020FFF72BFD77
:101630003DE0C048844208D101218020FFF723FD0E
:1016400000218020FFF71FFD31E0BB48844208D114
:1016500001218015FFF717FD0021A015FFF713FDED
:1016600025E0B648844209D101210804FFF7FEFCB9
:1016700000214FF48030FFF7F9FC18E0B0488442B5
:1016800009D101214804FFF7F1FC00214FF400309B
:10169000FFF7ECFC0BE0AB48844208D10121880441
:1016A000FFF7E4FC00214FF48020FFF7DFFC10BDC2
:1016B00000220288944B98420ED0994B98420BD04E
:1016C000B0F1804F08D0914B984205D0904B984292
:1016D00002D0904B984204D14FF68F731A404B883A
:1016E0001A438D4B984207D08C4B984204D04FF64A
:1016F000FF431A40CB881A4302808B8883850B886E
:101700000385814B98420BD0854B984208D08B4B78
:10171000984205D08A4B984202D08A4B984201D118
:101720000B7A038601238382704770B50024002260
:101730000023058C4FF6FE7635400584028C8388A5
:10174000048B4FF68F752C40B51E2C400D882C4312
:10175000751E2A400D892A434D882A436A4DA842A6
:101760000BD06F4DA84208D0744DA84205D0744DDF
:10177000A84202D0734DA84213D14FF6F7752A4004
:101780004D892A434FF6FB752A408D882A434FF630
:10179000FF652B404FF6FF552B408D892B43CD899C
:1017A0002B4383800483CD888586028470BD70B509
:1017B000002400220023058C4FF6EF763540058487
:1017C000028C8388048B48F6FF752C404FF6FF454A
:1017D0002C400D884FF6FF7606EA05252C434FF680
:1017E000DF752A400D8906EA05152A434D8806EA69
:1017F00005152A43444DA84202D0494DA8421DD1A7
:101800004FF67F752A404D894FF6FF7606EA05159B
:101810002A434FF6BF752A408D8806EA05152A43EC
:101820004FF6FF352B404FF2FF752B408D8906EAAE
:1018300085052B43CD8906EA85052B4383800483E8
:10184000CD880587028470BD70B500240022002376
:10185000058C4FF6FF6635400584028C8388848BA7
:101860004FF68F752C404FF6FC752C400D882C439D
:101870004FF6FF552A400D894FF6FF7606EA0525FB
:101880002A434D8806EA05252A431F4DA84202D067
:10189000234DA8421DD14FF2FF752A404D894FF6C6
:1018A000FF7606EA05252A434FF6FF352A408D8844
:1018B00006EA05252A434EF6FF752B404DF6FF75C7
:1018C0002B408D8906EA05152B43CD8906EA0515BF
:1018D0002B4383808483CD888587028470BD70B557
:1018E000002200230024058C4EF6FF763540058447
:1018F000038C8488828B48F6FF752A404FF6FF459B
:101900002A400D8820E00000002C01400004004027
:1019100000080040000C004000100040001400408F
:1019200000340140004C014000500140005401408F
:1019300000180040001C0040002000400040014012
:1019400000440140004801404FF6FF7606EA0525B5
:101950002A434DF6FF752B400D8906EA05352B43CA
:101960004D8806EA05352B43FA4DA84202D0FA4DC0
:10197000A84208D14BF6FF752C408D894FF6FF76B3
:1019800006EA85152C4384808283CD88A0F84050D8
:10199000038470BD828B4FF2FF331A408283828BA7
:1019A0004FF6FF7303EA01231A4382837047F0B5B1
:1019B0000C461546002200210026078C4EF6FF7CBF
:1019C00007EA0C070784828B018C4FF6FF7707EA42
:1019D000043640F6FF473A404FF6FF7707EA0527FF
:1019E0003A434FF6FF7707EA03373A43D94FB842F5
:1019F0000ED0D94FB8420BD0B0F1804F08D0D74F9E
:101A0000B84205D0D64FB84202D0D64FB84206D120
:101A10004DF6FF77394046F48057394305E047F6E5
:101A2000FF57394044F48057394382830184F0BD25
:101A3000828B4FF6F3731A408283828B0A43828330
:101A40007047F0B50C461546002200210026078C91
:101A50004FF6FF6C07EA0C070784828B018C4FF668
:101A6000FF7707EA04264FF60C773A404FF6FF77E8
:101A700007EA03172F433A43B64FB8420ED0B64F8A
:101A8000B8420BD0B0F1804F08D0B44FB84205D067
:101A9000B34FB84202D0B34FB84206D14FF6FF570A
:101AA000394046F48077394305E04FF2FF5739401B
:101AB00044F48077394382830184F0BD028B4FF276
:101AC000FF331A400283028B4FF6FF7303EA0123B0
:101AD0001A4302837047F0B50C46154600220021D8
:101AE0000026078C4FF6EF7C07EA0C070784028B71
:101AF000018C4FF6FF7707EA041640F6FF473A409D
:101B00004FF6FF7707EA03373A434FF6FF7707EAC6
:101B100005273A438F4FB8420ED08F4FB8420BD0B3
:101B2000B0F1804F08D08D4FB84205D08C4FB842ED
:101B300002D08C4FB84206D14FF6DF77394046F0DD
:101B40001007394305E04FF65F77394044F010073E
:101B5000394302830184F0BD028B4FF6F3731A40C0
:101B60000283028B0A4302837047F0B50C46154688
:101B700000220021068C4FF6FE773E400684028B41
:101B8000018C4FF60C7632407E1C06EA03162E437B
:101B90003243704EB0420ED06F4EB0420BD0B0F117
:101BA000804F08D06D4EB04205D06D4EB04202D08D
:101BB0006C4EB04206D14FF6FD76314044F001063E
:101BC000314305E04FF6F576314044F001063143EC
:101BD00002830184F0BD70B505460C465D48854220
:101BE0000ED05D4885420BD0B5F1804F08D05B48E0
:101BF000854205D05A48854202D05A48854200D1D4
:101C000000E000BF208850B92389A2886188284657
:101C1000FFF7ABFFE1882846FFF79EFF25E020880D
:101C200004280AD12389A28861882846FFF753FF38
:101C3000E1882846FFF742FF17E0208808280AD1EC
:101C40002389A28861882846FFF7FBFEE1882846A1
:101C5000FFF7EEFE09E02389A28861882846FFF796
:101C6000A6FEE1882846FFF795FE70BD2DE9F041FC
:101C700005460C4600260127608808B9022600E0C8
:101C80000026A088012801D1022700E00127208832
:101C9000A0B92389A28861882846FFF766FFE188FA
:101CA0002846FFF759FF23893A4631462846FFF771
:101CB00012FFE1882846FFF701FF13E02389A2887D
:101CC00061882846FFF707FFE1882846FFF7F6FE00
:101CD00023893A4631462846FFF747FFE1882846E0
:101CE000FFF73AFFBDE8F0810A884B881A438B88DA
:101CF0001A43CB881A430B891A434B891A438B89A1
:101D00001A43A0F8442070474FF6FF7181800021EC
:101D10000180C180418001727047002101804180B3
:101D20008180C180018141818181C1817047002111
:101D300001804180012181800021C18001817047A3
:101D40000021018041808180C180018141818181A8
:101D500070470000002C01400034014000040040A6
:101D600000080040000C004021B1028842F001024E
:101D7000028004E002884FF6FE731A40028070472A
:101D800031B1B0F8442042F40042A0F8442005E00C
:101D9000B0F84420C2F30E02A0F8442070471AB1F4
:101DA00083890B43838102E083898B43838170475E
:101DB0008182704741EA0203A0F8483070471AB1A7
:101DC00083890B43838102E083898B43838170473E
:101DD00001894FF6F8721140018170470A460021CF
:101DE00001894FF68F73194011430181704730B557
:101DF00004460D4629462046FFF7F0FF208940F0B3
:101E00000700208130BD2DE9F04104460D461646FD
:101E10001F46602D06D13B46012231462046FFF782
:101E20005AFE05E03B46012231462046FFF79DFE63
:101E300029462046FFF7D2FF208940F00700208185
:101E4000BDE8F08130B50C4600210189C9B24FF6DA
:101E5000FF7505EA0325154325432943018130BD5C
:101E60002DE9F04105460E461746984600244346A4
:101E70003A4631462846FFF7E5FF2C894FF6F870C1
:101E8000044044F007044FF68F70044044F070049F
:101E90002C81BDE8F081F0B504460D4616461F467C
:101EA0003B46324629462046FFF7CCFF208940F4C6
:101EB00080402081F0BD0185828270470A46002162
:101EC00001884FF68F731940114301807047F0B5B8
:101ED0000C4615461E460021002200230189028B74
:101EE000038C4FF6F877394021434FF6FC473A40D0
:101EF00040F201173A434FF6DD773B404FF6FF774C
:101F000007EA06172F433B43018102830384F0BD98
:101F10000A460021018B4FF68F731940114301834C
:101F200070470A460021018B48F6FF7319404FF6AF
:101F3000FF7303EA02231943018370470A46002115
:101F4000818B4FF68F7319401143818370470A4686
:101F50000021818B48F6FF7319404FF6FF7303EAA7
:101F6000022319438183704721B1028842F0800225
:101F7000028004E002884FF67F731A4002807047A7
:101F800021B1828842F00402828004E082884FF608
:101F9000FB731A408280704721B1828842F00802A8
:101FA000828004E082884FF6F7731A40828070477F
:101FB00021B1828842F00102828004E082884FF6DB
:101FC000FE731A40828070470A460021018B4FF64B
:101FD000F77319401143018370470A460021018BB2
:101FE0004FF2FF7319404FF6FF7303EA02231943C0
:101FF000018370470A460021818B4FF6F773194021
:102000001143818370470A460021818B4FF2FF7391
:1020100019404FF6FF7303EA022319438183704787
:102020000A460021018B4FF6FB73194011430183CF
:1020300070470A460021018B4FF6FF3319404FF6D7
:10204000FF7303EA02231943018370470A46002104
:10205000818B4FF6FB7319401143818370470A4609
:102060000021818B4FF6FF3319404FF6FF7303EACF
:1020700002231943818370470A460021018B4FF6E2
:102080007F7319401143018370470A460021018B79
:10209000C1F30E014FF6FF7303EA022319430183D4
:1020A00070470A460021818B4FF67F731940114318
:1020B000818370470A460021818BC1F30E014FF6E0
:1020C000FF7303EA02231943818370470A46002104
:1020D000018C4FF6FD7319401143018470470A4685
:1020E0000021018C4FF6F7731940114301847047AA
:1020F0000A460021018C4FF6DF7319404FF6FF733B
:1021000003EA02131943018470470A460021018C37
:102110004FF67F7319404FF6FF7303EA021319431A
:10212000018470470A460021018C4FF6FF53194085
:102130004FF6FF7303EA02231943018470470A46EE
:102140000021018C4FF2FF7319404FF6FF7303EA31
:1021500002231943018470470A460021018C4DF681
:10216000FF7319404FF6FF7303EA023319430184EA
:10217000704730B5002301248C40A3B2048C9C43EB
:102180000484048C02FA01F5ADB22C43048430BD02
:1021900030B5002304248C40A3B2048C9C430484F7
:1021A000048C02FA01F5ADB22C43048430BD70B545
:1021B0000346002000241846183001258D40ACB29B
:1021C0001D8CA5431D8409B1082909D100EB6100CC
:1021D000056825F0700505600568154305600EE08B
:1021E0000D1FC5F34E052844056825F4E04505603C
:1021F00005684FF6FF7606EA02263543056070BD96
:1022000021B1028842F00202028004E002884FF607
:10221000FD731A400280704721B1028842F0040227
:10222000028004E002884FF6FB731A400280704778
:1022300021B1828842F08002828004E082884FF6D9
:102240007F731A408280704702884FF6F7731A40F6
:10225000028002880A430280704782884FF68F739B
:102260001A40828082880A438280704702894FF632
:10227000F8731A40028102890A4302817047028979
:102280004FF67F731A40028102890A430281704728
:1022900081847047818570478186704701877047C8
:1022A00081877047A0F84010704702884FF6FF43BF
:1022B0001A40028002880A43028070470146888ED5
:1022C00070470146088F70470146888F7047014666
:1022D000B1F8400070470146888C70470146088D70
:1022E000704702460020138A0B400BB1012000E02A
:1022F00000207047CA430282704730B50246002072
:1023000000230024158A05EA0103958905EA0104E2
:1023100013B10CB1012000E0002030BDCA4302829D
:1023200070470000704700B5FFF7FCFF00BD00B527
:10233000022801D0FFF7F6FF00BD10B5044606489D
:102340004078022800D110BD02F0CEFD2046FFF7F4
:10235000EEFF00BFF7E70000A801002001460020C3
:1023600070477047F0B505460B461446002211E051
:10237000500008B9D01108B1012000E00020024649
:1023800018781044C2B213F8011B28466D1CFFF7E1
:10239000E8FF641E002CEBD111462846FFF7E1FF51
:1023A000F0BDF0B504460D461646002311E0284660
:1023B0006D1CFFF7D3FF0246580008B9D81108B1C9
:1023C000012000E0002003469818C3B204F8012B56
:1023D000761E002EEBD12846FFF7C0FF984201D1B0
:1023E0000120F0BD0020FCE710B54421F84805F0BD
:1023F00099F8F7498879283103F03AFE10B9072097
:1024000002F090FD10BD10B5F249F1481C3004F007
:102410002DFF10BD70B505460E4600240AE056F8A3
:10242000241055F8240009F09DF901D0002070BD5A
:10243000601CC4B2032CF2DB0120F8E701B5ACB09C
:1024400000202A90299025901E901D901C901B9092
:102450001990169015904021DF4805F063F8DE4989
:10246000491CDB4802680A6042684A6000890881AA
:1024700021E39DF864102C98405C1890189841282E
:1024800002DB18985A2802DD01202DB000BD9DF80E
:102490006400401CC0B2199017AA19A92C9801F029
:1024A000D7FD08B90220F0E7179808F0FFFFCDE943
:1024B000100108F0A9F8CDE9120108F0F9FBC0B24B
:1024C0001690169809F0D6F90D90179909F017FB98
:1024D000C2490E9009F016FA0F9008F0E7FFCDE917
:1024E000100107F0D1FFCDE9120108F0E1FB80B245
:1024F00015901898472802D04D286FD1BDE1169845
:102500002B286CD024DC12286AD010DC032868D079
:1025100006DC00286FD001286ED002286DD1ADE016
:10252000042840D00A2832D01128F7D1F6E01C2820
:102530002ED006DC132870D014286FD01528EDD1CA
:1025400038E11E2825D0262869D02828E6D147E181
:102550003B286FD00ADCA0F131000A284DD2DFE819
:1025600000F0F24C4C4C23F1F0EFEEED5B286FD015
:1025700006DC3D286DD050286CD05A28CED1EDE035
:102580005C2807D05D286ED05E28C7D104E100BF6B
:1025900000BF00BF159828B9299808B1182074E722
:1025A0000120299000BF00BF00201A9016981E2815
:1025B0002ED006DC042809D00A280BD01C2859D1BB
:1025C00010E035283BD05C2854D13CE00120824902
:1025D00008704FE00220804908704BE0C3E102E13F
:1025E0009DE04CE0159810B10A280BD106E00320BD
:1025F0007949087008E03FE03FE024E10420764993
:10260000087001E0142040E700BF0020159031E081
:10261000159828B10A280BD106E081E0C9E02FE027
:1026200005206D49087006E006206B49087002E03D
:1026300014202AE7F8E000BF002015901AE00720D8
:102640006549087016E0159828B10A280CD106E0F3
:1026500085E0F1E01BE008205F49087006E00920F2
:102660005D49087002E096E014200EE700BF0020EC
:10267000159000BF00BFE8E000BF00BF00BF00BF73
:10268000299808B1182000E70220299000BF0120F6
:102690001A901698032817D005DC48B101280BD0F2
:1026A000022839D10CE0262812D0502834D12FE04E
:1026B0000020494948702FE00120474948702BE02D
:1026C00002204549487027E003204349487023E031
:1026D0001598142806D01E2808D028280AD0322899
:1026E00010D10BE004203C4948700DE005203A4928
:1026F000487009E006203849487005E0072036494F
:10270000487001E01420C0E600BF0020159003E0EF
:1027100008203149487000BF00BF96E000BF00BFED
:1027200002201A901698112804D012280CD01328D1
:1027300012D10DE00021284841710DE073E071E0F5
:102740006FE06DE06BE04FE001212348417103E051
:1027500002212148417100BF00BF76E000BF1598FB
:1027600060B903201A9016985A2803D100211A48FC
:1027700001710FE00121184801710BE004201A904B
:1027800015980A2802D116985A2801D114207CE6FF
:102790000020159059E000BF05201A9016985D287A
:1027A00003D101210C48817002E000210A488170A8
:1027B0004BE000BF06201A901698142803D101217F
:1027C0000548C17002E000210348C1703DE00000EF
:1027D00024010020AC010020680100200000C84254
:1027E00007201A9031E000BF08201A90299808B1FC
:1027F00018204AE6032029901698312803D1002199
:10280000FE48817108E015980A2803D10121FB4890
:10281000817101E0142038E60020159015E000BF1A
:1028200000BF00BF00BF00BF09201A9016983638BD
:10283000C1B2F248C17108E00A201A90159808B197
:10284000142022E601E014201FE600BF159800289E
:1028500001DD172019E601211A9801FA00F01C99F0
:10286000084008B1152010E601211A9801FA00F07D
:102870001C99084380B21C901CE11598002801DDCA
:10288000172002E6169804282BD007DC78B101281F
:102890000ED002280DD0032850D123E0052822D0E5
:1028A000082838D0092837D01E2847D102E000BFB9
:1028B00000BF00BF0B201A90169830B1012808D035
:1028C000022807D01E280AD105E00121CB48017259
:1028D00005E004E000BF0221C848017200BF00BF4C
:1028E0002EE000BF00BF0C201A901698032804D0D9
:1028F000042806D005280CD107E00121BF488172C9
:1029000007E00221BD48817203E00021BB488172CB
:1029100000BF00BF14E000BF0D201A9016980828D1
:1029200002D0092808D103E00221B448417203E033
:102930000021B248417200BF00BF01E01420A4E5AD
:1029400000BF01211A9801FA00F01C99084008B153
:1029500015209AE501211A9801FA00F01C99084304
:1029600080B21C90A6E01898463815287AD2DFE885
:1029700000F00B7979111B252F79357945794B5169
:10298000577979795A646F0000201A909B491798FB
:10299000C86069E001201A909848179901611D9854
:1029A00040F001001D905FE002201A9093481799B3
:1029B00041611D9840F002001D9055E003201A90DF
:1029C0008E48179981611D9840F004001D904BE0DE
:1029D00004201A9089491698087745E005201A9036
:1029E000179808F063FDCDE9100107F00DFECDE961
:1029F000120108F0E9F88149086235E006201A90D2
:102A00007E48179941622FE007201A907B4817995A
:102A1000816229E008201A9078481799C16223E062
:102A200009201A9020E00A201A90744817994163EF
:102A30001E9840F001001E9016E00B201A906F487F
:102A4000179981631E9840F002001E900CE009E087
:102A50000C201A9069481799C1631E9840F0040031
:102A60001E9001E0142010E500BF01211A9801FA20
:102A700000F01B99084008B1192006E501211A98B9
:102A800001FA00F040F26131084058B1179808F09F
:102A90000DFD00221346CDE9120108F061F901D2C3
:102AA0000420F2E401201A9988401B99084380B25F
:102AB0001B9000BF00BF9DF864102C98405C00285C
:102AC0007FF4D7AC1E9818B1299808B90220299034
:102AD0001B9800F0200030B14848006A48498842FD
:102AE00001DD1B20D1E44548807801280FD12998C9
:102AF00002282ED141484078082802D13F4840782A
:102B000010B31B9800F00100F0B91620BDE43D4859
:102B10004078C8B91B9800F00100B0B13748C078C0
:102B2000012816D13548C0680F9008F0BFFC4FF05F
:102B30006632354BCDE9100108F04EF9CDE91201AE
:102B400007F0C0FD2D49C86003E02E4800692B49FD
:102B5000C8601B9800F4807018B92A48C1682748DB
:102B6000C16226480078012809D11B9800F0400076
:102B700008B91C2089E41B9820F040001B901F48D6
:102B8000407910B101280ED106E0002028900120E4
:102B90002790022026900DE0022028900020279008
:102BA0000120269006E00120289002202790002096
:102BB000269000BF00BF1148C078012831D1002005
:102BC0002A902BE001212A9801FA00F01E99084072
:102BD00000B30A4834302A9950F821000F9008F0C9
:102BE00065FC4FF06632084BCDE9100108F0F4F8AF
:102BF000CDE9120107F066FD014607E068010020FB
:102C00007F9698002401002066663940FC482A9A85
:102C100040F822102A98401CC0B22A902A98032813
:102C2000D0DB299803280AD1F54834388079012867
:102C300005D11E9880F0040008B1252025E4F14A52
:102C4000D2E90A10126BCDE9230222911C9800F4FC
:102C50000070B8B1EA483438C079062801DD1D207B
:102C600013E4E8488179E6483438C079814209D0D4
:102C7000E3483438C07922A9149003F0F9F908B96F
:102C8000072002E4DE4834380078022802D0082801
:102C90007ED198E01E9808B91A2004E41B9800F031
:102CA000500008B91C207AE4D5483438406A0F90A7
:102CB00008F0FCFBCDE9100107F0A6FCCDE91201FC
:102CC00007F0F6FFC0B225902598062801DD1D20EB
:102CD00065E4CB483438007F14280CD0C848343819
:102CE000007F022805D11B9800F0800018B1142045
:102CF00055E4142053E41B9820F050001B902598B5
:102D0000002804DD2598401EC0B2259003E0BC4891
:102D10003438C07925901FA9259803F0A9F908B97E
:102D200007203CE400202A9049E001212A9801FA7A
:102D300000F01E99084060B3B1483438007F142871
:102D400031D1B04834302A9950F821001390AD4861
:102D50001C3050F821001290139908F0DBFE1490FB
:102D6000A7482A9950F8210001461390149808F0BA
:102D7000D1FE1FAA2A9942F821002A9802281AD1C6
:102D8000A048006C1FA914902A9851F8200001E077
:102D900069E010E01390149908F0BCFE1FAA2A996C
:102DA00042F8210007E096482A9950F821101FAAFE
:102DB0002A9842F820102A98401CC0B22A902A98DB
:102DC0000328B2DBF2E01E9808B91A201BE40020A9
:102DD0002A9044E001212A9801FA00F01E99084047
:102DE00080B322A92A9851F82000139085481C30FE
:102DF0002A9950F821001290139908F08BFE149034
:102E00007F482A9950F8210001461390149808F041
:102E100081FE01467A482A9A40F822102A98022810
:102E200019D17848006C149075482A9950F82100FF
:102E30001390149908F06EFE014671482A9A40F8E2
:102E4000221008E0FFE76F4834302A9950F821201B
:102E50006B4840F821202A98401CC0B22A902A983A
:102E60000328B7DBA2E0299803286AD01E98E8B3AC
:102E700000202A9062E001212A9801FA00F01E99B0
:102E8000084040B95F481C302A9950F821205C481E
:102E900040F821204EE05A4834380078072849D0BD
:102EA00057483438007990BB564834302A9950F846
:102EB000210022A913902A9851F82000129013990A
:102EC00008F020FB4E4914902A9851F82000014642
:102ED0001390149808F016FB014649482A9A40F8C6
:102EE00022102A98022825D1464800E029E0006CEB
:102EF000434914902A9851F820001390149908F02F
:102F000001FB01463E482A9A40F8221012E0FFE7F2
:102F10003C481C302A9950F821001490384850F849
:102F200021001390149908F0EDFA014634482A9ACA
:102F300040F822102A98401CC0B22A902A980328F0
:102F400099DB2F4834380078C01E07282CD2DFE8E0
:102F500000F0041C101D1F2B1E001E9808B9002035
:102F600029901FA9062003F083F808B907200EE472
:102F70001AE01E9808B9002029901FA9072003F025
:102F800077F808B9072034E40EE000BF0CE00BE04E
:102F90001B483438407830B119483438407801281B
:102FA00001D01E2025E400BF00BF00BF00BF1448B1
:102FB00034384078082807D11E9800280FD0299867
:102FC0000128FBD01F2014E42998022807D10C48BF
:102FD0003438407820B91E980028F7D12990E9E1CB
:102FE00007483438C068119008F060FA0022134690
:102FF000CDE9120107F0ACFD06D116200BE400006C
:103000009C01002024010020FE484078082809D2B5
:10301000DFE800F00804090AFCFBFAF91E9808B979
:1030200000202990C5E100BF1E9808B91A2008E4C5
:103030000121289801FA00F0012227998A401043C3
:103040001E99084008B9202004E4EF48289950F858
:1030500021001290EB48343050F821001190129961
:1030600008F058FD1490E848279950F82100129074
:10307000E448343050F821001190129908F04AFDCC
:1030800013901B9800F08000F0B31B9820F0800094
:103090001B90DC493431DC48FFF7BCF908B1212032
:1030A0004DE4D848C078012811D1D648806A0D90E7
:1030B00008F0FCF94FF06632D44BCDE90E0107F071
:1030C0008BFECDE9100107F0FDFACE498862139915
:1030D000084608F017FC0B9008F0E8F9CDE90E015E
:1030E0001499084608F00EFC079008F0DFF9CDE9C6
:1030F0000A01C448806A039008F0D8F9CDE90601B6
:10310000C048806A019000E097E008F0CFF9002203
:10311000BF4BCDE9020107F05FFECDE90401DDE917
:10312000062307F059FECDE90801DDE90A2308F07E
:10313000D3F8CDE90C01DDE90E2308F0CDF8CDE997
:10314000100107F0BFFA12900021129808F0A6FBB8
:1031500001D2222087E4DDE9131001F024F80B905E
:1031600008F0A4F9CDE90E01129808F09FF9CDE915
:103170000A0107F023FA81F00041CDE90C01DDE9F5
:103180000E2307F08DFBCDE9100107F09BFA12909A
:103190009C484078032803D1129880F00040129098
:1031A0009848806A0021119008F078FB09D21298A3
:1031B00080F0004012909348806A80F0004191486E
:1031C0008162DDE9121008F09DFB0C90149908F063
:1031D00096FC0D9008F06AF900228E4BCDE90E01A5
:1031E00007F0FAFDCDE9100107F06CFA01468548B9
:1031F0001030289A40F822101299149808F082FB97
:103200000C90139903E0C7E0C5E0C3E0C1E008F00B
:1032100079F90D9008F04AF900227E4BCDE90E01B4
:1032200007F0DAFDCDE9100107F04CFA01467548C8
:103230001030279A40F82210AAE00121289801FABC
:1032400000F0012227998A4010431D99084008B9CF
:10325000232008E41B9820F00E001B906948C078DA
:10326000012829D100202A9023E001212A9801FA7F
:1032700000F01D990840C0B1624810302A9950F8FA
:1032800021000B9008F012F94FF066325F4BCDE948
:103290000C0107F0A1FDCDE90E0107F013FA01467C
:1032A000584810302A9A40F822102A98401CC0B280
:1032B0002A902A980328D8DB52481030289950F8D1
:1032C000210001461090149808F024FC14904D48F9
:1032D0001030279950F8210001461090139808F0FB
:1032E00019FC1390DDE9131000F05DFF12904549C1
:1032F0001031279851F8200010900846289950F86E
:1033000021000F90109900F04EFF3E498862084658
:10331000806A01460C90129808F0FCFB0D9008F0B2
:10332000C5F821F00041CDE90E0107F0CBF911906D
:10333000119808F0BBF8384A384BCDE90E0107F078
:1033400049FE24D2119808F0B1F80022314BCDE9A2
:103350000E0107F03FFE01D221200BE42948806ACC
:10336000099008F0A3F82E4A2E4BCDE90A0107F088
:1033700033FDCDE90E01119808F098F8CDE90C0164
:10338000DDE90E2307F026FE01D2212056E400BF1E
:103390000FE000BF00BF00BF1E9808B91A204DE41F
:1033A000184934311848FFF735F808B1212045E4B1
:1033B00000BF00BF40F221311B9888431B90299821
:1033C00018B11B9820F4E0501B901B9808B12420E2
:1033D00034E40C48016A0C481C3881610948807843
:1033E00009491C3948700748C06808610548C06A27
:1033F00014900846C0681390149908F0B3F923D0CC
:10340000014811E068010020400100206666394053
:10341000000010400000E03F7B14AE47E17A743FAB
:10342000FCA9F1D24D62503F1C38407A40B1CB48E4
:10343000C06A1490CA48407A1390149903F023F894
:10344000C648C06AC649C860C44890F83000C4493C
:1034500008750846417AC148807A81420CD0C0483C
:10346000C0681490BD48807A1390149903F00BF84B
:10347000BA48807ABA494872B948017AB748407A5E
:10348000814208D0B548407A1490FEF756FFB34801
:10349000407AB3490872B1480078012804D1AF4896
:1034A000406A149000F0EBFCAC484079AC490871DC
:1034B000AA48C0788870299803280DD1A748807938
:1034C000487108464079012803D1A448C06B0864BC
:1034D00002E00020A2490864A14881799F48C07990
:1034E000814208D09D48C0799D4988710A4622A82A
:1034F0000BC828320BC2994800799949C87097487F
:103500000078801E082843D2DFE800F00413271457
:103510002D42333C1FA9259802F0FAFC904881798E
:103520002598814204D18E481FA90EC928300EC0AB
:103530002EE000BF299828B100228A4987483430FC
:1035400000F0B8FA002287491FA800F0B3FA8449B6
:103550001FA80DC81C310DC11AE081491C3106207D
:1035600002F0D6FC14E07E491C31072002F0D0FCAA
:103570000EE07B497948D0E90D23C06BC1E90D23EA
:10358000C86305E07648002141638163C16300BFE1
:1035900000BF7248407872490870084600780828D1
:1035A00076D02998022873D10846007808280BD2D3
:1035B000DFE800F0040B18334E5E6F7F002269498C
:1035C0006648343000F076FA83E06548407814901D
:1035D000634800691390014660483430149A00F043
:1035E00069FA76E00123DDE927212698CDE9040375
:1035F000CDE902125A48407859490969CDE90010CD
:103600005648806A0346554A103202F1240114904C
:1036100053481C3000F077FA5BE00023DDE92721F6
:103620002698CDE90403CDE902124D4840784C4973
:103630000969CDE900104948806A0346474A1032BB
:1036400002F12401149046481C3000F05CFA40E07E
:1036500000200090424840781490414800690023BF
:10366000139001463D483430149A00F078FC30E065
:10367000012000903A4840781490394800690023AE
:103680001390014635483430149A00F068FC20E06D
:1036900028E00020009032484078149030480069BB
:1036A0000123139001462D483430149A00F057FC42
:1036B0000FE0012000902A484078149028480069C3
:1036C00001231390014625483430149A00F047FC3A
:1036D00000BF00BF22492148D0E90D23C06BC1E9DA
:1036E000072348621D48007A1D49C8710846C07901
:1036F00090B301F0F9FB1A48C079012806D11A48A5
:103700004078022825D001F045FA22E00120144932
:10371000087000200871C87048708871487208727B
:1037200011484078022811D00846807922A91490C7
:1037300002F09EFC08B9072019E4094822A90EC925
:1037400028300EC002F04AFEFEF7ECFD072001F023
:1037500070FC00200249C871002008E468010020C4
:1037600024010020000080BFA8010020704700B5A0
:10377000CB4890F8400000F0080008B9FFF7F6FFCA
:1037800000BD002070472DE9F04F8FB08046C5483E
:10379000007810B10FB0BDE8F08F4FF0030B00269A
:1037A000002438E0204602F0F8FD0DA9085501205C
:1037B000A04000EA080060B3B949243151F8240060
:1037C00007F074FE0022B84BCDE9000107F004FBBE
:1037D000CDE90401304607F069FECDE90201DDE9DB
:1037E000042307F0F7FB03D2304607F05FFE0BE03F
:1037F000AB49243151F8240007F058FE0022AA4BAF
:10380000CDE9040107F0E8FACDE9060106F05AFF18
:103810000646601CC4B2032CC4DB0125A048D0F8C6
:10382000489000BF9F49091D0AA803F01FFD00270B
:103830000020099000242EE00120A04000EA0800AA
:1038400038B30998401CC0B2099000219548001D6A
:1038500040F82410924890F841000121A14008400E
:1038600050B12DB186F000400AA941F824000DE0C6
:103870000AA840F8246009E01DB10AA840F82460B5
:1038800004E086F000400AA941F824000DA8005D7C
:103890000743601CC4B2032CCEDB099807F04CFA36
:1038A000CDE9000106F08AFECDE90401484607F0A3
:1038B000FDFDCDE90201DDE9042307F08DFACDE934
:1038C000060106F0FFFE81467648477700F09FFF2D
:1038D000002249460AA800F0AFFD02F04FFE02F0B8
:1038E000EFFD00BFB5B1FFF74CFF824600240DE0AD
:1038F0000DA8005D384038B10120A04000EA0A0060
:1039000010B10DA8005D8743601CC4B2032CEFDB2F
:103910006448477702F032FE6448007800F03400D3
:10392000B0B16248007800F0300058B925B9FFF70F
:1039300028FF00EA080028B94DB15C48007800F083
:10394000040020B100F066FB01F024F922E703E057
:1039500007F01C000028C5D100BF02F0DEFD00F01A
:1039600007FD4F49B1F84C0000F011FC85F001054E
:1039700095B14B49086D07F099FD00224C4BCDE9FC
:10398000040107F029FACDE9060106F09BFE064680
:103990004348D0F8449003E04148066DD0F8489081
:1039A000BBF10000ABF1010101F0FF0B3FF73AAFB3
:1039B00000243CE00120A04000EA0800A8B33848F9
:1039C00090F841000121A1400840B0B1344A116D86
:1039D000243252F8240007F095FD0490304850F846
:1039E0002410049807F08EFF059007F05FFDCDE9E5
:1039F000060106F0E7FC089012E02948006D80F00F
:103A000000400490264850F82410049807F07AFFEC
:103A1000059007F04BFDCDE9060106F0D3FC0890B8
:103A20002049091D089841F82400601CC4B2032CE9
:103A3000C0DB00F0ECFE00BFACE670B5054600242C
:103A40002AE055F82400002108F028F808D3144A89
:103A5000243252F8241055F8240007F01FFF02D238
:103A600001201049C8700F48C07898B10D484078BF
:103A700008280AD100BF01F08DF80A48007800B18B
:103A800070BD084840780028F5D100F0C3FA01F075
:103A900081F8F5E7601CC4B2032CD2DB00BFEFE76E
:103AA0000C060020A80100200000F8BF4D000020F7
:103AB0000000144070B504460D461646FE4890F8C6
:103AC000400000F0200010B12046FFF7B6FFFB4891
:103AD0004078022800D170BD00BF01F05BF8F748C4
:103AE000007800B1F7E700F09DFC10B101F092F909
:103AF00000E000E0F1E700BF32462946204600F032
:103B00009BFC00BFE7E72DE9FF4F97B005468846CD
:103B10001446DDE92779269E54F8261055F826002C
:103B200007F0F0FC169054F8271055F8270007F01E
:103B3000E9FC159054F8260080F00040149054F8E9
:103B4000270080F00040139058F82600169907F0DF
:103B5000E1FF129058F82700159907F0DBFF11904C
:103B60001199139807F0CEFE09901299149807F056
:103B7000C9FE0890099907F0C5FC834607F096FC3A
:103B8000CDE90C01DDE9121007F0BCFE0990119996
:103B9000149807F0B7FE0890099907F0BBFF834619
:103BA00007F084FCCDE90A01DDE90C2306F012FAE6
:103BB000CDE90E0106F086FD1090299848B11098C5
:103BC00007F074FCBE4ABF4BCDE90E0107F002FAC4
:103BD00008E0109807F06AFCB94ABB4BCDE90E012A
:103BE00007F0BEF84FF080401A9907F08BFE049062
:103BF000B148C16B049807F08DFF0590AE48C16BCA
:103C0000059807F07FFE834607F050FCCDE90601DA
:103C100006F0D4FCCDE90A011A9807F047FCCDE97B
:103C20000601109807F042FC0022A84BCDE90201E2
:103C300007F0D2F8CDE90401DDE9062307F0CCF85E
:103C400021F00041CDE90801DDE90A2306F028FE54
:103C5000CDE90C0106F03AFBCDE90E0107F028F89A
:103C60001FFA80FABAF1000F7ED0259838B150467D
:103C700007F000FE0790249907F044FE2490504678
:103C800007F0F8FD01460790109807F0A9FC0F9087
:103C9000504607F0EFFD079055F8291058F8290015
:103CA00007F038FF0690079907F09AFC0E900F99DD
:103CB000084607F027FE039007F0F8FB00224FF0BC
:103CC0008043CDE9040107F015FACDE9060106F0BD
:103CD000F9FC0D900D9807F0E9FB00227C4BCDE933
:103CE000000106F021FDCDE904010F9807F0DEFB8D
:103CF000784A794BCDE9000107F06EF8CDE9020171
:103D0000DDE9042307F068F8CDE9060106F0DAFCE6
:103D10000C900D9807F0CAFB00226C4BCDE9040112
:103D200007F05AF8CDE9060106F0CCFC0D90002012
:103D300008904FF0010B97E008980C2824DA0D99B1
:103D4000139807F0DFFD07900C99149807F0DAFD3F
:103D50000690079907F0D6FB09900C99139807F085
:103D6000D1FD07900D9900E082E0149807F0CAFD9C
:103D70000690079907F0CEFE1490099813900898C2
:103D8000401CC0B208904DE0584607F073FD029009
:103D90000F9907F0B7FD039007F088FBCDE9040108
:103DA00006F046FACDE9060106F08CFC0A9058466A
:103DB00007F060FD02900F9907F0A4FD039007F053
:103DC00075FBCDE9040106F0A9FBCDE9060106F07B
:103DD00079FC0B9054F827000B9907F093FD07909E
:103DE00054F8260080F0004005900A9907F08AFDFB
:103DF0000690079907F086FB149054F827000A995B
:103E000007F080FD079054F8260080F000400590F0
:103E10000B9907F077FD0690079907F07BFE13904A
:103E2000002008901499169807F06CFB45F82600BE
:103E30001399159807F066FB45F8270055F82900F7
:103E40000E9907F05FFB45F829002846DDE92412AA
:103E5000FFF730FE1948007810B11BB0BDE8F08FB5
:103E60000BF101001FFA80FBD345FFF665AF00BFE1
:103E70004046DDE92412FFF71DFE00BFEDE72DE906
:103E8000FC5F81460D484078022801D1BDE8FC9FC7
:103E90001249484607F036FD824607F007FB074601
:103EA00006F014FA054606F003FF84B201F01CF890
:103EB000322104FB01F013E00C060020A8010020D1
:103EC0008DEDB5A0F7C6A0BEF7C6A03E0000E03F4E
:103ED000000010404BDA7D5C5555C53F0000A04105
:103EE00007F0B0FC56490190484607F00BFD0090E2
:103EF000019907F00FFE834607F0D8FA074606F04F
:103F0000E5F9054606F0D4FE1FFA80FA504600F0A7
:103F10003EF908E000F03EFE4A48007800B1B5E7FF
:103F2000322000F034F9201EA4F101018CB2F1DC42
:103F300000BFABE710B5FFF719FC0420FFF723FC27
:103F40000320FFF720FC00F025FE3E48007800B17A
:103F500010BDFEF758FAFFF70AFC00BFF8E72DE99D
:103F6000F04105460E4617461C46DDF818803548D8
:103F70004078022801D1BDE8F08100F0B5FF0020B3
:103F800030490877204600F0CCFD00F0E0FD08B194
:103F900000F000FE2B48007800B1ECE73A463146CD
:103FA0002846FFF787FD01202749087000BF00F071
:103FB000F1FD2448007800B1DDE722484078002870
:103FC000F5D121480078012809D1B8F1000F09D0B6
:103FD0001C4803461B1D0ECB10300EC002E0012012
:103FE0001849087700201849087000F0D3FD1548DB
:103FF000007800B1BFE702F090FA00F0B9F900F0E4
:1040000006FC1049091D284603F030F901F080FB39
:1040100000BFB0E710B50D48007800F0100070B98F
:1040200002F0DCF9FEF77EF90648407800F00C005B
:1040300018B904488078012801D102F042FA10BD75
:1040400000007A44A80100204C0000204D00002010
:104050002DE9F74F86B082468B469BF8000000EBB7
:104060000A0414F8016B002005902D2E04D10120C4
:10407000059014F8016B03E02B2E01D114F8016BAD
:104080000020049000250027804625E0A6F130009E
:10409000C6B2092E15DC781CC7B2082F0BDCB8F1AC
:1040A000000F01D0681E45B2049800EB800006EBBB
:1040B000400004900EE0B8F1000F0BD1681C45B22F
:1040C00008E0FE2E05D1B8F1000F02D14FF0010833
:1040D00000E002E014F8016BD8E700BF1FB9002030
:1040E00009B0BDE8F08F049807F0C4FB81460021B9
:1040F000484607F037FB39D00FE0484607F0D6F9BD
:10410000374A384BCDE9000106F066FECDE90201E1
:1041100006F0D8FA8146A81C45B215F1020FECDD75
:10412000002D0EDA484607F0C1F92F4A2F4BCDE992
:10413000000106F051FECDE9020106F0C3FA814606
:1041400014E0002D12DD00BF484607F0AFF9002251
:10415000274BCDE9000106F03FFECDE9020106F054
:10416000B1FA8146681E40B2051EEDDC059820B10B
:1041700089F000410898016002E00898C0F80090BA
:10418000A4EB0A00401E8BF800000120A8E710B540
:104190000446012003F096F810BD10B504462046F1
:1041A00003F091F810BD2DE9F84F044689464946C1
:1041B000484607F0A7FB83462146204607F0A2FBAE
:1041C0005946009007F09EF9824607F06FF90746BE
:1041D00006F0F4F9054606F075FABDE8F88F000020
:1041E0007B14AE47E17A843F9A9999999999B93F9E
:1041F00000002440411CC8B2122800D100207047A2
:1042000000B91220411EC8B270472DE9F047F748A7
:104210000078FFF7F5FF0546F5480078854201D1A3
:10422000BDE8F08705EB450000EBC500F14901EB67
:1042300080044FF08040616A07F064FB8146A16A08
:1042400007F060FB8046A16907F028FC01D2A06955
:1042500008E04FF08040616A07F054FB8046A16A95
:1042600007F050FB60612846FFF7CAFF0546E048AB
:104270000078854206D1E0480078854235D102F0C9
:104280006AF932E02DE0264605EB450000EBC5005B
:10429000D84901EB80042846FFF7B2FF0546D6480F
:1042A0000078854201D102F056F9D4E9050107F002
:1042B00059FA16D04FF08040616A07F023FB81461F
:1042C000A16A07F01FFB8046716907F01BF90746DA
:1042D0003846A16907F0E2FA01D2676101E0A069FE
:1042E0006061C34800788542CDD1C148007800EBB9
:1042F000400101EBC000BF4901EB8006BC480078DB
:10430000FFF778FF05462DE0344605EB450000EB4E
:10431000C500B84901EB80067169606907F0BEFA13
:1043200015D24FF08040616A07F0ECFA8146A16A2D
:1043300007F0E8FA8046616907F0E4F80746384676
:10434000716907F0ABFA02D27761A9480570D6E926
:10435000050107F007FA01D1A54805702846FFF7C7
:1043600049FF0546A14800788542CDD100BF57E7F7
:1043700010B51C21A14803F0D5F800209E49087013
:104380009A49087001209E490870002098490870D9
:1043900010BD00B5954800789749097888420FD03C
:1043A00095480078FFF726FF024693480078904929
:1043B0000978884201D18E4802708F48027000BF90
:1043C00000BD8A4800788C490978884201D10020D4
:1043D00070478948007800EB400101EBC000854937
:1043E00001EB8000F4E72DE9F04183480078FFF706
:1043F00001FF04467D480078844202D10020BDE8D8
:10440000F08104EB440101EBC4017A4A02EB810123
:10441000486907F04BF8074606F0D0F8054606F065
:1044200051F9ECE77448007875490978884201D160
:10443000012070470020FCE72DE9F74F90B06B4852
:10444000007800EB400101EBC0006A4901EB8004F9
:1044500000202061A06220706A486062002554E05C
:10446000694A52F82510109A52F8250007F04AFAC6
:10447000834607F01BF8074605F0A4FF0CA941F896
:10448000250051F825105D4A52F82520881A002889
:1044900001DB014600E04142221D42F82510201DAB
:1044A00050F825002169814201D9206902E0201DD0
:1044B00050F8250020610CA951F825104F4A52F8F8
:1044C0002520881A07F0BEF907464F4850F82510F6
:1044D000384607F085F8064609A840F8256000210F
:1044E000304607F0DBF905D2284601F060FF21785D
:1044F000084320703146304607F004FA0746A16AA7
:1045000007F000F8A062681CC5B2032DA8DBA06A02
:1045100006F0CCFFCDE9060106F050F8074606F09C
:10452000D1F8A062206910B913B0BDE8F08F002166
:10453000119807F0B3F902D23248119006E01298B0
:1045400020B1A16A119807F0DDF91190119806F0D9
:10455000ADFF074600222D4B06F002FC02D24FF0C1
:104560007E501190A06A06F0A1FF02460B46CDE9ED
:1045700006010020254906F093F9074606F0A2F847
:1045800081464FF0000A00256EE009A951F8250088
:10459000002107F0E7F865D009A951F82500494640
:1045A00007F0B0F909A941F8250051F8250006F0F7
:1045B0007DFF07463A460B460020144906F070F985
:1045C00021F00041CDE9060106F07CF808900E4983
:1045D0000C3151F82500089907F094F90746119914
:1045E00007F05CFA14D2119818E0000031000020A6
:1045F00033000020C801002030000020E00400202B
:10460000320000209976967E0C0600200000F03FD4
:10461000964951F82500089907F074F911909349CB
:104620000C3151F82500089907F06CF90746616ACA
:1046300007F034FA01D2606A06E08C490C3151F877
:104640002500089907F05EF9606209AA52F8251062
:10465000874A52F8250007F055F90746514607F0FA
:104660004EFA8246681CC5B2032D8EDB8148007865
:1046700081490978884203D100206061E06184E0CB
:10468000504606F013FF07467C4A7D4B06F0A2FC1D
:1046900002D20020E06178E0504606F007FF774A3A
:1046A000784BCDE9060106F095FC03D2504606F0A2
:1046B000FDFE01E071487349074606F003F88246A3
:1046C000504606F0F3FE074600226D4BDB1C06F059
:1046D00011FD00226C4BCDE9020106F07DFBCDE916
:1046E000040105F06BFFCDE9060105F0EBFF834601
:1046F000584606F0DBFE0022614BDB1CCDE90001D1
:1047000006F0F8FC594A0C3ACDE90401916B606A55
:1047100007F0F8F85946009007F0F4F8019006F019
:10472000C5FECDE90201DDE9042306F0B9F8002257
:104730001346CDE9060106F013FB02D20020014624
:104740001EE0584606F0B2FE00224D4BDB1CCDE9C0
:10475000020106F0CFFC454A0C3ACDE90601916B07
:10476000606A07F0CFF85946029007F0CBF8039043
:1047700006F09CFECDE90401DDE9062306F090F881
:10478000074605F09FFFE06100BF1199084607F05A
:10479000B9F82062364A0C3A9169206A07F07EF82F
:1047A00001D2206A02E032480C3880690746394657
:1047B000E06907F073F801D2E0690BE02C4A0C3A8B
:1047C0009169206A07F06AF801D2206A02E028485D
:1047D0000C388069A06126480C3809A90EC90C3034
:1047E0000EC023490C39206A886108460CA90EC9FD
:1047F0000EC0264800781F49087008460078FFF769
:10480000F9FC22490870FFF700FD00BF8CE600208C
:1048100008E01F4951F82010154A0C3A42F82010C0
:10482000411CC8B20328F4DB7047124800781249D3
:104830000978884206DB0F4800780F490978401A4A
:10484000C0B270470C4800780A490978401AC0F194
:104850001200C0B2F5E710B501F07DFE0648007801
:104860000C490870FFF7D1FC10BD000018060020AD
:10487000EC0400203100002030000020E90B21E78B
:10488000FDFFEF3FFDFFEFBF0000E03F32000020E3
:10489000AC0100203300002010B5044603E014F8FA
:1048A000010B01F0D5FA20780028F8D110BD70472F
:1048B0002DE9F04705460E461746B946484602F030
:1048C0009BFD804600240AE095FBF6F006FB1050A5
:1048D00008F8040095FBF6F0C5B2601CC4B2BC42F7
:1048E000F2DB08E0611E18F801103031C8B201F0A7
:1048F000AFFA601EC4B2002CF4DC404602F0ABFDFF
:10490000BDE8F08710B50446082202212046FFF7D3
:10491000CFFF10BD70B505460A2D01DA012404E071
:10492000642D01DA022400E0032422460A212846ED
:10493000FFF7BEFF70BD3EB504461CB9302001F044
:1049400087FA3EBD00250CE00A20B4FBF0F100FB25
:1049500011422846691CCDB20DF800200A20B4FB94
:10496000F0F4002CF0D108E0691E1DF80110303180
:10497000C8B201F06DFA681EC5B2002DF4DC00BFAC
:10498000DFE710B50446002C06DA2D2001F060FAAE
:104990006042FFF7D0FF02E02046FFF7CCFF10BDDA
:1049A0002DE9F04786B082460D460021504606F0BC
:1049B00075FF04D22D2001F04BFA8AF0004AA94677
:1049C00008E05149504606F09DFF8246A9F10200D9
:1049D00000F0FF09B9F1020FF3DAB9F1000F04D0CA
:1049E0004A49504606F08EFF8246504606F05EFD6C
:1049F00007460022464B05F097FECDE9000105F081
:104A000061FE82460024504606F0E0FE06462E2057
:104A100002A9485511E0AC4201D1601CC4B20A2081
:104A2000B6FBF0F100FB116030302146621CD4B2BD
:104A300002AA50540A20B6FBF0F6002EEBD105E096
:104A400030222046611CCCB202A90A54AC42F7DBEA
:104A5000AC4207D1601CC4B230222046611CCCB2EB
:104A600002A90A5406E0611E02AA505C01F0F0F9A6
:104A7000601EC4B2002CF6DC06B0BDE8F0872DE95C
:104A8000F0470446234890F8400000F0010078B158
:104A9000204606F00BFD07461F4A204B06F09CF906
:104AA000054605F00FFE81460421FFF779FF03E07C
:104AB00003212046FFF774FFBDE8F0872DE9F0479A
:104AC0000446144890F8400000F0010078B12046F8
:104AD00006F0ECFC0746104A104B06F07DF905463F
:104AE00005F0F0FD81460121FFF75AFF03E00021A8
:104AF0002046FFF755FFBDE8F08710B504460321B7
:104B00002046FFF74DFF10BD0000C84200002041C5
:104B10000000E03F0C0600206568E1575128A43FE3
:104B200070470021164A1170164991F8401001F0A3
:104B3000800121B91146097881F02001117028B156
:104B40000F49097881F020010D4A117070477047B4
:104B500000B50D480078012811D1FFF7F8FF70B1BA
:104B6000002009490870094803461B1D0ECB103070
:104B70000EC00748007840F040000549087000BDAD
:104B8000340000200C0600204C000020A80100206A
:104B90004D00002010B500BFDD4804788CB3012023
:104BA000DC49487004F0020018B1012000F018FA46
:104BB0001AE004F0040018B1022000F011FA13E02A
:104BC00004F0080018B1032000F00AFA0CE004F029
:104BD000100018B1042000F003FA05E004F02000F2
:104BE00010B1052000F0FCF904F0010048B10120EB
:104BF00000F01FFA00BFC848007800F0100000283D
:104C0000F9D0C5480478002C7ED004F0100018B10B
:104C10000120C049087010BD04F0010008B100F087
:104C2000D4FF04F06800002848D0BA48407820B18A
:104C3000B848407800F07C00F0B3B64840780828C7
:104C400004D101F088FC0120B2498870B148407855
:104C500010B90220AF49887004F0400060B1AD483F
:104C60004078082802D14020AA494870A948807895
:104C700040F00800A749887004F0080038B1A54842
:104C8000407800F0200010B91020A249487004F0CC
:104C9000200088B1062000F0CCF99E48807800F012
:104CA000020008B144F004049A48807840F00400FF
:104CB00098498870202000E000E0487004F002006D
:104CC000E8B304F06800D0BB9248407848B19148FE
:104CD000407800F0500090B38E48807800F00200D9
:104CE00068B38C48807800F00400C0B18B48407AEB
:104CF00040B18A4AD168507A01F075FB4FF47A606E
:104D0000FFF745FA854800E03FE0007A38B1834973
:104D1000087AFDF70CFB4FF47A70FFF738FAFFF7CB
:104D200050FB68B17B48807800F0080040B908204B
:104D30007849487001F022FC01F0C2FB03E005E075
:104D400000207449487000207249887004F0040003
:104D5000D8B17048407800F0300090B16D48C0780C
:104D600078B96C48807800F0040018B101F036FB87
:104D7000FDF7D8FA6748807840F0020065498870EE
:104D800003E000206349887048706248407800F072
:104D90007C0008B101F0F2FB5E48407820280AD17F
:104DA0005C48807800F0020028B102F076F810B973
:104DB0001020584948705748807800287FF4ECAE9E
:104DC00000BF28E770B50446FFF7E4FE51480078BD
:104DD00000B170BD207818B9002000F0A3F817E0EA
:104DE0002078242806D1204602F076F8054600F007
:104DF00099F80DE047484078012803D1092000F0D8
:104E000091F805E02046FDF719FB054600F08AF809
:104E100000BFDEE7704770B500F03EF93D484078CE
:104E2000012803D1022000F004F911E002F035F866
:104E300040B13948007840F0200037490870FFF74A
:104E4000A9FE02E0002033494870354802F027F8F7
:104E50000026002500BF39E00A2C01D00D2C08D116
:104E600000202F4948550846FFF7ACFF00260025D3
:104E70002CE02EB1292C29D1012E27D1002625E0A6
:104E8000202C23DD2F2C21D0282C01D101261DE040
:104E90003B2C01D1022619E04F2D05DB0B2000F041
:104EA00041F80026002511E0612C0ADB7A2C08DC91
:104EB000A4F12000C2B22846691CCDB218490A5498
:104EC00004E02846691CCDB215490C5400F0E1FFFE
:104ED0000446FF28C0D1FFF79DFFFFF75BFE0D489A
:104EE00000780028B7D070BD10B5FFF793FF00BF62
:104EF000FFF750FE0748007800B110BDFFF761FAD8
:104F00000028F5D1034840780828F1D000BFF4E725
:104F10004E000020A80100204D00002024010020A8
:104F2000FC04002010B504461CB9AFA0FFF7BFFC7D
:104F300055E0AFA0FFF7BBFC172C45D2DFE804F02B
:104F4000440C1014181C2024282C303444444444AD
:104F5000444444443C384000A7A0FFF7A8FC3AE092
:104F6000ABA0FFF7A4FC36E0AEA0FFF7A0FC32E058
:104F7000B1A0FFF79CFC2EE0B2A0FFF798FC2AE05E
:104F8000B5A0FFF794FC26E0B7A0FFF790FC22E065
:104F9000BEA0FFF78CFC1EE0BFA0FFF788FC1AE064
:104FA000C0A0FFF784FC16E0C3A0FFF780FC12E06E
:104FB000C5A0FFF77CFC0EE0C9A0FFF778FC0AE073
:104FC000CCA0FFF774FC06E0CFA0FFF770FC2046F2
:104FD000FFF7A0FC00BF00BFD0A0FFF768FC10BD2A
:104FE00010B50446CEA0FFF762FC062C18D2DFE80D
:104FF00004F01703070B0F13CBA0FFF758FC0FE0CB
:10500000CCA0FFF754FC0BE0CDA0FFF750FC07E06D
:10501000D0A0FFF74CFC03E0D1A0FFF748FC00BF95
:1050200000BFBEA0FFF743FC4FF4FA70FFF7AFF8E4
:1050300010BD10B50446CDA0FFF739FC092C26D2CF
:10504000DFE804F02505090D1115191D2100C8A080
:10505000FFF72DFC1BE0CBA0FFF729FC17E0CEA04B
:10506000FFF725FC13E0D1A0FFF721FC0FE0D1A052
:10507000FFF71DFC0BE0D2A0FFF719FC07E0D3A05F
:10508000FFF715FC03E0D3A0FFF711FC00BF00BF42
:10509000D5A0FFF70CFC10BD10B5D4A0FFF707FC9E
:1050A00010BD10B5D948FFF702FC10BD2DE9F04145
:1050B000D7A0FFF7FCFBD74991F83000FFF72AFC97
:1050C000D5A0FFF7F4FBD34991F83300FFF722FC9A
:1050D000D8A0FFF7ECFBCF4991F83100FFF71AFC9D
:1050E000DCA0FFF7E4FBCB4991F83100FFF70AFCA5
:1050F000DFA0FFF7DCFBC74991F83200FFF70AFC9D
:10510000DDA0FFF7D4FBC34991F83200FFF7FAFBAB
:10511000DFA0FFF7CCFBBF4991F84010C1F380003E
:10512000FFF7F8FBDCA0FFF7C2FBBA4991F840108B
:10513000C1F38010FFF7EEFBE0A0FFF7B8FBB54925
:1051400091F84010C809FFF7E5FBE4A0FFF7AFFBBB
:10515000B04991F83400FFF7DDFBE8A0FFF7A7FBAB
:10516000AC4991F83400FFF7CDFBEAA0FFF79FFBB5
:10517000A849886BFFF7C1FCE8A0FFF798FBA54999
:10518000C86BFFF7BAFCEDA0FFF791FBA14991F8BE
:10519000401001F00100FFF7BDFBEFA0FFF787FB18
:1051A0009C4991F84010C1F34010FFF7B3FBF2A007
:1051B000FFF77DFB974991F84010C1F3C000FFF75E
:1051C000A9FBF4A0FFF773FB924991F84010C1F3DB
:1051D0000010FFF79FFBF6A0FFF769FB8D4991F8E0
:1051E0004100FFF797FBF1E16F6B0D0A0000000033
:1051F0006572726F723A20004578706563746564F9
:1052000020636F6D6D616E64206C657474657200EF
:10521000426164206E756D62657220666F726D61A9
:1052200074000000496E76616C6964207374617467
:10523000656D656E7400000056616C7565203C20DC
:105240003000000053657474696E6720646973618F
:10525000626C65640000000056616C7565203C203E
:105260003320757365630000454550524F4D2072E1
:10527000656164206661696C2E205573696E6720D4
:1052800064656661756C7473000000004E6F742075
:1052900069646C6500000000416C61726D206C6F88
:1052A000636B0000486F6D696E67206E6F742065D8
:1052B0006E61626C656400004C696E65206F766596
:1052C00072666C6F770000004D6F64616C206772CE
:1052D0006F75702076696F6C6174696F6E00000085
:1052E000556E737570706F7274656420636F6D6D49
:1052F000616E6400556E646566696E6564206665FE
:105300006564207261746500496E76616C69642021
:1053100067636F64652049443A0000000D0A00008D
:10532000414C41524D3A200048617264206C696DD5
:1053300069740000536F6674206C696D69740000B5
:1053400041626F727420647572696E67206379635D
:105350006C65000050726F6265206661696C0000C8
:10536000486F6D696E67206661696C005B000000C4
:10537000526573657420746F20636F6E74696E7507
:1053800065000000272448277C2724582720746FB5
:1053900020756E6C6F636B0043617574696F6E3A54
:1053A00020556E6C6F636B6564000000456E616232
:1053B0006C65640044697361626C656400000000A0
:1053C000436865636B20446F6F72000050676D2007
:1053D000456E6400526573746F72696E6720646510
:1053E0006661756C747300005D0D0A000D0A4772EA
:1053F000626C20302E396A205B27242720666F726A
:105400002068656C705D0D0A00000000C8BF0008D0
:1054100024303D000C060020202873746570207035
:10542000756C73652C2075736563290D0A24313DF5
:10543000000000002028737465702069646C65208A
:1054400064656C61792C206D736563290D0A2432C3
:105450003D00000020287374657020706F72742006
:10546000696E76657274206D61736B3A000000009E
:10547000290D0A24333D0000202864697220706FD2
:10548000727420696E76657274206D61736B3A0078
:10549000290D0A24343D00002028737465702065AE
:1054A0006E61626C6520696E766572742C20626F25
:1054B0006F6C290D0A24353D0000000020286C691E
:1054C0006D69742070696E7320696E766572742CD4
:1054D00020626F6F6C290D0A24363D0020287072FF
:1054E0006F62652070696E20696E766572742C201B
:1054F000626F6F6C290D0A2431303D0020287374CF
:1055000061747573207265706F7274206D61736B56
:105510003A000000290D0A2431313D0020286A7527
:105520006E6374696F6E20646576696174696F6E0D
:105530002C206D6D290D0A2431323D002028617226
:105540006320746F6C6572616E63652C206D6D29CC
:105550000D0A2431333D000020287265706F72748B
:1055600020696E636865732C20626F6F6C290D0A69
:105570002432303D000000002028736F6674206CD8
:10558000696D6974732C20626F6F6C290D0A243267
:10559000313D0000202868617264206C696D697477
:1055A000732C20626F6F6C290D0A2432323D00008B
:1055B0002028686F6D696E67206379636C652C20A5
:1055C000626F6F6C290D0A2432333D00E4A0FFF7AF
:1055D0006EF9EA4991F84100FFF794F9E8A0FFF766
:1055E00066F9E649486CFFF788FAE7A0FFF75FF92C
:1055F000E249886CFFF781FAEBA0FFF758F9DF4921
:1056000091F84C00FFF786F9EFA0FFF750F9DB495E
:10561000086DFFF772FAF4A0FFF749F96426002538
:1056200072E0002469E0F7A0FFF741F93119C8B230
:10563000FFF770F9AFF2E810FFF739F935B1012D36
:105640000AD0022D0FD0032D22D117E0CB4951F8FB
:105650002400FFF752FA1BE0C8490C3151F824002E
:10566000FFF74BFA14E0C549183151F82400E64918
:1056700005F0B6FF0746FFF740FA09E0BF482430BF
:1056800050F8240080F000473846FFF736FA00BF94
:1056900000BFDEA0FFF70BF924B1012C06D0022CCD
:1056A0000CD107E0DAA0FFF702F907E0D9A0FFF775
:1056B000FEF803E0D8A0FFF7FAF800BF00BF35B14D
:1056C000012D08D0022D0AD0032D10D10BE0D3A05C
:1056D000FFF7EDF80BE0D4A0FFF7E9F807E0D7A05B
:1056E000FFF7E5F803E0DAA0FFF7E1F800BF00BF3D
:1056F000DBA0FFF7DCF8601CC4B2032C93DB06F1DF
:105700000A00C6B2681CC5B2042D8ADBBDE8F08170
:105710003EB5D4A0FFF7CBF8002410E02146D348D3
:1057200001F091FD4DF824005DF82400FFF7A7F982
:10573000022C02DACEA0FFF7BAF8601CC4B2032C28
:10574000ECDB8DA0FFF7B3F8C8491039087FFFF7ED
:10575000E1F8AFF26C30FFF7AAF83EBD3EB5002588
:1057600038E06946284600F083FC18B90720FFF7A7
:10577000D9FB3EBDBFA0FFF79AF8062D02D0072D3A
:1057800008D103E0BCA0FFF792F809E0BBA0FFF747
:105790008EF805E005F13601C8B2FFF7BBF800BF8F
:1057A00000BF75A0FFF783F800240FE05DF8240028
:1057B000FFF765F9022C03DAADA0FFF778F803E0F4
:1057C000AFF2DC30FFF773F8601CC4B2032CEDDBE2
:1057D000681CC5B2072DC4DDA9A0FFF768F8002436
:1057E00010E0A94951F82400FFF749F9022C03DA27
:1057F0009FA0FFF75CF803E0AFF21440FFF757F803
:10580000601CC4B2032CECDBA0A0FFF750F89E494B
:105810003439086CFFF733F9AFF23440FFF747F83B
:10582000FFF776FF00BFA4E710B5AFF2C040FFF767
:105830003EF895483438007809281AD2DFE800F09D
:1058400005090D1119191919150092A0FFF72FF864
:105850001AE091A0FFF72BF816E090A0FFF727F8C9
:1058600012E08FA0FFF723F80EE08EA0FFF71FF8DD
:105870000AE08DA0FFF71BF8834934390978891EA7
:10588000C8B2FFF747F800BF00BF89A0FFF70FF8C5
:105890007D49343989793631C8B2FFF73BF87A4807
:1058A0003438007920B1012806D002280CD107E055
:1058B00080A0FEF7FCFF07E080A0FEF7F8FF03E002
:1058C00080A0FEF7F4FF00BF00BF6F483438807837
:1058D00018B97EA0FEF7EBFF02E07EA0FEF7E7FF1F
:1058E00069483438C07818B97CA0FEF7E0FF02E0C0
:1058F0007CA0FEF7DCFF644834384078012803D1EF
:105900007AA0FEF7D4FF02E07AA0FEF7D0FF5E484F
:105910003438C07920B1012806D002280CD107E024
:1059200076A0FEF7C4FF07E075A0FEF7C0FF03E016
:1059300074A0FEF7BCFF00BF00BF53483438407A64
:1059400060B1012802D0022803D103E06EA0FEF767
:10595000AEFFE1E06DA0FEF7AAFFDDE0D8E00000B9
:105960002028686F6D696E672064697220696E76A1
:10597000657274206D61736B3A0000000C060020A4
:10598000290D0A2432343D002028686F6D696E6746
:1059900020666565642C206D6D2F6D696E290D0A7A
:1059A0002432353D000000002028686F6D696E6765
:1059B000207365656B2C206D6D2F6D696E290D0A46
:1059C0002432363D000000002028686F6D696E6744
:1059D000206465626F756E63652C206D7365632945
:1059E0000D0A2432373D00002028686F6D696E670C
:1059F0002070756C6C2D6F66662C206D6D290D0AFC
:105A00000000000024000000000061452028000084
:105A100078000000790000007A0000002C207374E8
:105A200065702F6D6D000000206D617820726174CB
:105A3000652C206D6D2F6D696E0000002061636321
:105A4000656C2C206D6D2F7365635E320000000065
:105A5000206D61782074726176656C2C206D6D000C
:105A6000290D0A005B5052423A000000B8010020A4
:105A70002C0000005B47000032380000333000008B
:105A80005B4739323A000000580100205B544C4F0C
:105A90003A00000047300000473100004732000064
:105AA00047330000473830004733382E00000000ED
:105AB00020470000204731370000000020473138E0
:105AC000000000002047313900000000204732313B
:105AD000000000002047323000000000204739302D
